:020000040800F2
:10000000D00F0020450100084D0100084F010008F5
:1000100051010008530100085501000800000000CC
:100020000000000000000000000000005701000870
:1000300059010008000000005B010008B10D000834
:100040005F0100085F0100085F0100085F01000810
:100050005F0100085F0100085F0100085F01000800
:100060005F0100085F0100085F0100085F010008F0
:100070005F0100085F0100085F0100085F010008E0
:100080005F0100085F0100085F0100085F010008D0
:100090005F0100085F0100085F0100085F010008C0
:1000A0005F0100085F0100085F0100085F010008B0
:1000B0009D0E00085F0100085F0100085F01000855
:1000C0005F0100085F0100085F0100085F01000890
:1000D0005F0100084D1100085F0100085F01000882
:1000E0005F0100085F0100085F0100085F01000870
:1000F0005F0100085F0100085F0100085F01000860
:100100005F0100085F0100085F0100085F0100084F
:100110005F0100085F0100085F0100085F0100083F
:100120005F0100085F0100085F0100085F0100082F
:10013000DFF80CD000F018F8004800472917000835
:10014000D00F00200648804706480047FEE7FEE73C
:10015000FEE7FEE7FEE7FEE7FEE7FEE7FEE7FEE777
:100160003D0E000831010008064C074D06E0E0682E
:1001700040F0010394E8070098471034AC42F6D3EE
:10018000FFF7DAFFEC1700080C1800082DE9F04122
:1001900005460E4617464FF480510B4800F0DAF83A
:1001A00045F0800000F08EFC002404E0305D00F09B
:1001B00089FC601CC4B2BC42F8DB4FF48051024899
:1001C00000F0CAF8BDE8F081000C01402DE9F041D3
:1001D00005460E461746284600F010F804460CB9AE
:1001E000BDE8F081E06908B1E06980473A463146F0
:1001F000204601F030F900BFF2E70000014609B9DE
:1002000009487047012901D10020FAE7022901D1EC
:100210000020F6E7032901D10020F2E7042901D1EB
:100220000020EEE70020ECE7480100202DE9F04136
:10023000024600250026002000230024002791F814
:1002400003C00CF00F0591F803C00CF0100CBCF1CA
:10025000000F03D091F802C04CEA050591F800C0E8
:10026000BCF1000F31D0146800202BE04FF0010CDE
:100270000CFA00F3B1F800C00CEA03069E4220D14C
:1002800083004FF00F0C0CFA03F7BC4305FA03FC94
:100290004CEA040491F803C0BCF1280F06D14FF0DA
:1002A000010C0CFA00FCC2F814C00AE091F803C07B
:1002B000BCF1480F05D14FF0010C0CFA00FCC2F85C
:1002C00010C0401C0828D1D31460B1F800C0BCF1A4
:1002D000FF0F34DD546800202EE000F1080C4FF0D1
:1002E000010808FA0CF3B1F800C00CEA03069E42BC
:1002F00021D183004FF00F0C0CFA03F7BC4305FA31
:1003000003FC4CEA040491F803C0BCF1280F05D1AA
:1003100000F1080C08FA0CF8C2F8148091F803C038
:10032000BCF1480F07D100F1080C4FF0010808FAA2
:100330000CF8C2F81080401C0828CED35460BDE8E9
:10034000F0810246002093680B400BB1012000E0D1
:100350000020704741617047016170474CF6CC4006
:1003600001490860704700000030004010B500F0FF
:1003700013F810BD70B505460C4645F2555000F017
:100380001FF8284600F010F8204600F013F800F09F
:1003900003F8FFF7E3FF70BD4AF6AA2001490860A1
:1003A000704700000030004001494860704700007D
:1003B0000030004001498860704700000030004074
:1003C00001490860704700000030004008B5012175
:1003D000042000F093F84FF48050ADF80000102096
:1003E0008DF8030003208DF8020069461148FFF7DD
:1003F0001DFF4FF40060ADF8000069460D48FFF79F
:1004000015FF4FF40060ADF8000069460948FFF79A
:100410000DFF4FF480510748FFF79EFF4FF4006136
:100420000448FFF799FF4FF400610248FFF794FF7B
:1004300008BD00000008014070B5002100230F2214
:10044000C47804B3154C246804F4E064C4F5E06493
:10045000210AC1F10403CA40447804FA03F1847804
:100460001440214309010E4C0678A155047804F08C
:100470001F050124AC4005786D11AD0005F1E025A4
:10048000C5F8004109E0047804F01F050124AC40E0
:10049000044D0678761145F8264070BD0CED00E05D
:1004A00000E400E080E100E002490143024A1160FB
:1004B000704700000000FA050CED00E029B1064A83
:1004C000D2690243044BDA6104E0034AD2698243F1
:1004D000014BDA61704700000010024029B1064A62
:1004E00012690243044B1A6104E0034A1269824311
:1004F000014B1A61704700000010024029B1064A02
:1005000092690243044B9A6104E0034A9269824370
:10051000014B9A61704700000010024029B1064A61
:10052000D2680243044BDA6004E0034AD268824393
:10053000014BDA60704700000010024030B5002126
:100540000022002400232D4D6D6805F00C0121B11F
:10055000042905D0082923D105E0294D056022E0B2
:10056000274D05601FE0254D6D6805F47012234D81
:100570006D6805F48034022505EB92421CB9214DCB
:10058000554305600BE01D4D6D6805F400351DB148
:100590001C4D5543056002E0194D5543056002E0CE
:1005A000174D056000BF00BF144D6D6805F0F001E8
:1005B0000909154D6B5C0568DD4045600F4D6D68A0
:1005C00005F4E061090A104D6B5C4568DD4085600B
:1005D0000A4D6D6805F46051C90A0B4D6B5C4568A6
:1005E000DD40C560054D6D6805F44041890B074D40
:1005F0006B5CC568B5FBF3F5056130BD00100240CA
:1006000000127A0000093D002E0000203E0000206C
:1006100008B501210420FFF771FF01210820FFF731
:100620006DFF4FF48070ADF8000003208DF80200DC
:1006300010208DF8030069461548FFF7F7FD4FF4C9
:100640008050ADF8000003208DF8020010208DF8D6
:10065000030069460F48FFF7E9FD4FF48060ADF8ED
:10066000000004208DF8030069460A48FFF7DEFD0C
:100670004FF40060ADF8000003208DF80200102058
:100680008DF8030069460348FFF7D0FD08BD000060
:1006900000080140000C014010B500F0A9F900F07D
:1006A000ABF810BD70B506464FF480714748FFF7B0
:1006B00051FE642404E00A2000F03CFF601EC4B236
:1006C000002CF8D14FF480714048FFF745FEFA2422
:1006D00004E00A2000F02EFF601EC4B2002CF8D106
:1006E00000F056F9FA2404E0012000F023FF601E18
:1006F000C4B2002CF8D100F073F8422000F0FEF9EB
:10070000054600BF06E0324931F8140000F014FA43
:10071000601CC4B2032CF6DB2E49088800F00CFAEA
:1007200040F60B3000F008FA40F6234000F004FADF
:1007300029484078062823D12849097A4FF4E852FD
:1007400002EB011101F1090000F0F6F922494978A4
:100750004FF4F05202EB0111C81C00F0EDF931200A
:1007600000F0CCF9054605F0F80545F0050505F55E
:10077000445000F0E1F943F20C7000F0DDF912E0B2
:100780001649097A4FF4E85202EB011101F1080011
:1007900000F0D2F9104949784FF4F05202EB011100
:1007A000C81C00F0C9F941F6FF7000F0C5F94FF41C
:1007B000005000F0C1F942F20C1000F0BDF944F213
:1007C000011000F0B9F900F0E9F870BD000801402F
:1007D000B8170008BE170008C6170008CC17000895
:1007E00010B54FF4C47000F0A7F910BD10B541F278
:1007F000FF2000F0A1F910BD10B50020FFF752FF57
:1008000044F6845000F098F942F2FF4000F094F969
:1008100044F2010000F090F941F23F1000F08CF931
:10082000FFF7E4FF42F2152000F086F90F2000F0F8
:1008300065F9044604F5506000F07EF940F20D10B1
:1008400000F07AF910BD2DE9F041044600270020A0
:10085000FFF728FF4FF47A7000F06CFE44F68750E3
:1008600000F06AF94FF4105000F066F944F24100CC
:1008700000F062F9FFF7BAFF41F2F71000F05CF9FF
:1008800004F5085000F058F90E2000F037F906463C
:1008900006F5506000F050F90BE0222000F02EF930
:1008A0000546A54200D105E0032F02DB0020BDE88C
:1008B000F081F2E700BF2046F9E700002DE9F041A2
:1008C0000546002603E00020A855701CC6B2202E65
:1008D000F9DB102000F012F9074607F5506000F030
:1008E0002BF9012000F026FE0F484078062801D1A0
:1008F000152403E0132000F001F90446012C04D173
:10090000002000F0FBF8287006E00848047022463A
:100910002946002000F0B0F8FFF768FF012000F042
:1009200009FE2046BDE8F081C61700080800002037
:1009300070B505460C460026224629460020FFF7E2
:1009400025FC40F20B1000F0F7F809E0701C80B2B3
:100950000646B0F57A7F00DD09E0012000F0CAFD0F
:100960004FF480610948FFF7ECFC0028EED000BF8F
:10097000122000F0C3F8FFF739FF00F00FF8B6F5CA
:100980007A7F01DD002070BD2046FCE7000C0140AD
:1009900010B54FF4847000F0CFF810BD10B540F2E0
:1009A000091000F0C9F810BD10B500240348FFF786
:1009B00085FF044600F004F8204610BD9800002092
:1009C00010B5FFF719FF10BD70B506460C4600259F
:1009D0002046FFF738FF054621463046FFF7A8FFBF
:1009E0000546052000F086FDFFF7EAFF284670BDAA
:1009F00000B587B01E4800F0C3F801210820FFF7BA
:100A00007DFD01218803FFF759FD4FF46040ADF8EB
:100A1000040018208DF8070001208DF8060001A9B8
:100A20001448FFF703FC0020ADF808004FF4827073
:100A3000ADF80A000020ADF80C00ADF80E00ADF8DE
:100A400010004FF40070ADF812003820ADF814001B
:100A50000020ADF816000720ADF8180002A90448E0
:100A600000F0C8F80121024800F07EF807B000BD90
:100A700000380040000C01402DE9F04106460F46C9
:100A80001546012D01DCBDE8F0814FF480510C4882
:100A9000FFF760FC06F07F0000F014F8002405E08A
:100AA000FF2000F00FF83855601CC4B2AC42F7DBF1
:100AB0004FF480510248FFF74FFC00BFE3E700000E
:100AC000000C014010B5044600BF02210A4800F0A6
:100AD00083F80028F9D02146074800F089F800BFC4
:100AE0000121054800F078F80028F9D0024800F00C
:100AF0007CF8C0B210BD00000038004070B504465C
:100B00004FF480510848FFF725FC04F07F00FFF701
:100B1000D9FF00F00BF805464FF480510248FFF76B
:100B20001BFC284670BD0000000C014010B5FF20E2
:100B3000FFF7C8FF10BD000010B5044644F40044A0
:100B40004FF480510748FFF705FC2012FFF7BAFF6A
:100B5000E0B2FFF7B7FF4FF480510248FFF7FCFB0C
:100B600010BD0000000C014021B1028842F040029B
:100B7000028004E002884FF6BF731A40028070477B
:100B800010B504461148844208D101218014FFF7B2
:100B9000C5FC0021A014FFF7C1FC16E00C488442FC
:100BA00008D101210014FFF799FC00212014FFF760
:100BB00095FC0AE00748844207D10121C013FFF7E2
:100BC0008DFC0021E013FFF789FC10BD00300140CF
:100BD00000380040003C00400246002013890B40D2
:100BE0000BB1012000E00020704701468889704762
:100BF0008181704710B50022028802F441520B88AF
:100C00004C8823438C882343CC8823430C8923437B
:100C10004C8923438C892343CC8923431A43028084
:100C2000838B4FF2FF74234083830B8A038210BDB2
:100C300010B500F001F810BD0CB500200190009037
:100C40003348006840F480303149086000BF3048C4
:100C5000006800F4003000900198401C019000985A
:100C600018B90198B0F5A06FF1D12948006800F4D7
:100C7000003010B10120009001E0002000900098A9
:100C8000012843D12348006840F010002149086042
:100C90000846006820F0030008600846006840F03D
:100CA000020008601A4840681949486008464068D0
:100CB00048600846406840F48060486008464068E4
:100CC00020F47C1048600846406840F4E810486012
:100CD0000846006840F08070086000BF0C4800685B
:100CE00000F000700028F9D00948406820F00300A7
:100CF000074948600846406840F00200486000BF6D
:100D00000348406800F00C000828F9D10CBD000031
:100D1000001002400020024070B5002016E00021C3
:100D200000EB40021E4B03EB8202516000EB4002DD
:100D300003EB8202916000EB400203EB82025170F0
:100D400000EB400203F82210411CC8B20428E6DB85
:100D5000144909684FF47A73B1FBF3F2511EB1F1F3
:100D6000807F00D31BE0511E4FF0E02359615917DB
:100D70000F23002904DB1C07250E0B4C655406E0ED
:100D80001C07260E094C01F00F052D1F665500BFEC
:100D900000214FF0E02399610721196100BF70BD68
:100DA000180100204400002000E400E018ED00E0FD
:100DB00010B500F001F810BD10B51B48006840B137
:100DC00019480068401E1849086010B901201749E9
:100DD0000870002408E004EB4401154A02EB81008E
:100DE00000F02FFC601CC4B2042CF4DB1148006836
:100DF000401C10490860084600686FF000418842B6
:100E000002D100200B49086000F01AFC0A48007863
:100E1000401CC0B2084908700A2803DB0020087093
:100E200000F0FAFB10BD00000C00002010000020B4
:100E300018010020140000201800002010B51348ED
:100E4000006840F0010011490860084640681049F8
:100E500008400E494860084600680E4908400B49A2
:100E600008600846006820F4802008600846406852
:100E700020F4FE0048604FF41F008860FFF7D8FEA2
:100E80004FF000600449086010BD000000100240EF
:100E90000000FFF8FFFFF6FE08ED00E010B50221AC
:100EA000480700F05BF858B10221480700F044F809
:100EB00000220221480700F062F81B4800688047C2
:100EC0000421080700F04AF858B10421080700F08F
:100ED00033F800220421080700F051F81348006895
:100EE00080470821C80600F039F858B10821C80623
:100EF00000F022F800220821C80600F040F80C4853
:100F0000006880471021880600F028F858B11021A9
:100F1000880600F011F800221021880600F02FF852
:100F200004480068804710BD1C00002020000020FD
:100F30002400002028000020CA430282704721B10B
:100F4000028842F00102028004E002884FF6FE733C
:100F50001A40028070470146888C704730B50246BF
:100F6000002000230024158A05EA0103958905EA7B
:100F7000010413B10CB1012000E0002030BD1AB112
:100F800083890B43838102E083898B43838170478C
:100F9000818670470187704781877047A0F84010AD
:100FA00070470000002202881D4B98420ED01D4B56
:100FB00098420BD0B0F1804F08D01B4B984205D01F
:100FC0001A4B984202D01A4B984204D14FF68F73B5
:100FD0001A404B881A43174B984207D0164B984239
:100FE00004D04FF6FF431A40CB881A4302808B8807
:100FF00083850B8803850A4B98420BD0094B984296
:1010000008D00E4B984205D00D4B984202D00D4BA4
:10101000984201D10B7A0386012383827047000036
:10102000002C014000340140000400400008004052
:10103000000C00400010004000140040004001403F
:10104000004401400048014008B525208DF800000B
:1010500000208DF8020001208DF803006846FFF79C
:10106000EBF908BD10B500F04FF800F003F8FFF7FA
:10107000EBFF10BD00B585B001210520FFF73EFA5A
:1010800001218803FFF73AFA4FF40070ADF8100021
:1010900018208DF8130003208DF8120004A91848B9
:1010A000FFF7C4F84FF48060ADF8100004208DF80D
:1010B000130004A91248FFF7B9F84FF4E13000908B
:1010C0000020ADF80400ADF80600ADF80800ADF85A
:1010D0000C000C20ADF80A0069460A4800F0A2F89E
:1010E000012240F22551074800F077F80121054818
:1010F00000F03DF84021034800F030F805B000BD95
:1011000000080140003801400B480C4908600C48B9
:1011100048600C4888604FF480608881C881002056
:1011200008824882C882088348838882C86108622E
:10113000054848627047000000380140480100201F
:1011400070010020700500205913000810B50248F6
:1011500000F00EF910BD00004801002001F40072FB
:10116000B2F5007F00D100BFCA430280704721B1B1
:10117000828942F40052828104E082894DF6FF7335
:101180001A408281704770B5024600240023002572
:10119000002040F66A16B14200D100BFC1F34215EB
:1011A00001F01F03012606FA03F3012D02D19689EF
:1011B000334006E0022D02D1168A334001E0968AC0
:1011C00033400C12012606FA04F41688344013B199
:1011D0000CB1012000E0002070BDF0B503460024F2
:1011E00000260025002040F66A17B94200D100BF52
:1011F0001846C1F3421401F01F06012707FA06F54D
:10120000012C01D10C3004E0022C01D1103000E09F
:1012100014301AB107682F43076002E00768AF4334
:101220000760F0BD2DE9F04786B005460E46002464
:10123000A24600BFA1460027B08900B100BF2F46DB
:101240002C8A4CF6FF700440F08804432C82AC8951
:101250004EF6F3100440B088318908437189084381
:101260000443AC81AC8A4FF6FF400440B08904438C
:10127000AC8201A8FFF762F91F48874202D1DDF86E
:1012800010A001E0DDF80CA0A88900F4004040B1F6
:101290000AEBCA0000EB0A1031684900B0FBF1F814
:1012A00007E00AEBCA0000EB0A1031688900B0FBC6
:1012B000F1F86420B8FBF0F004012009642101FB7F
:1012C0001089A88900F4004040B1322000EBC90029
:1012D000B0FBF1F000F00700044308E0322000EB1F
:1012E00009106421B0FBF1F000F00F0004432C81E1
:1012F00006B0BDE8F087000000380140014688884C
:10130000C0F308007047C1F30802828070470000F4
:1013100070B5044600200D49087040F22F150C4AA4
:101320002946012000F09CF90A4890F8960096287A
:101330000ADA084890F8961090F89600401C054A82
:1013400082F896001046445470BD00002C00002026
:10135000651300087009002010B504462046FFF709
:10136000D7FF10BD01200149087070472C000020F4
:1013700070B5044640F225512068FFF704FFE0B144
:101380002068FFF7BBFFC5B2E18AA0684554E08A38
:10139000401C80B2E082E189884201DB0020E082CB
:1013A000608BE189884202DA608B401C6083606A4E
:1013B00010B12846616A884700BF40F22771206853
:1013C000FFF7E1FE08B3A08A60B9002240F227715E
:1013D0002068FFF702FF012240F226612068FFF734
:1013E000FCFE37E0638A6268D15C2068FFF78BFF00
:1013F000608A401C80B26082A189884201DB0020A3
:101400006082A08A401EA08224E040F2266120680B
:10141000FFF7B9FEF0B1A08A50B9002240F2266170
:101420002068FFF7DAFE206AA0B1206A804711E049
:10143000638A6268D15C2068FFF765FF608A401CA0
:1014400080B26082A189884201DB00206082A08A8C
:10145000401EA08270BDF8B504460E461746002512
:1014600029E00EE0012000F041F8A08A0090002061
:1014700000F03CF8A089BDF80010884200DD01E0D2
:1014800000BFEFE700BF705D228A616888540120C9
:1014900000F02CF8208A401C80B22082A18988426A
:1014A00001DB00202082A08A401CA082002000F0E6
:1014B0001DF8681C85B2BD42D3DB012240F22771C2
:1014C0002068FFF78AFEF8BD02E008C8121F08C1B5
:1014D000002AFAD170477047002001E001C1121FB5
:1014E000002AFBD1704780F31088704780F3108882
:1014F0007047000010B5044604B910BD012C00D19E
:1015000002240120FFF7EFFF08480460002008498B
:101510000870FFF7E8FF04E005480078012800D1D3
:1015200000E0F9E700BF00BFE7E700000C00002083
:1015300010000020F0B5034600224FF0E026756948
:101540000F4E36680F4FB6FBF7F606FB03F400BFED
:101550004FF0E026B16910E04FF0E026B069884214
:101560000BD0884202D20E1A324402E02E1A0E44E8
:1015700032440146A24200D300E0EDE700BFF0BDD7
:101580004400002040420F007FB501210846FEF7CD
:1015900095FF1548006846081448B6FBF0F085B280
:1015A0004FF6FF74ADF80840ADF804500020ADF8D8
:1015B0000A00ADF8060001A94FF08040FFF7F2FCE9
:1015C00001218807FFF7BBFC1C208DF800000420D8
:1015D0008DF8010000208DF8020001208DF8030035
:1015E0006846FEF729FF7FBD4400002040420F00FF
:1015F00010B54FF4C060FEF757FFFEF7E7FEFFF7A8
:101600008BFBFFF7C1FFFFF72DFDFFF701F8FFF799
:1016100043F8FFF7D5F910BD07480068401C06499C
:101620000860322807D1002008600448006880F470
:101630000060024908607047040000200C08014067
:101640007047416851B14168491E416031B901217B
:1016500041700178012901D1816841607047000023
:101660002DE9F04104460F461546052F00D37F1F94
:101670004FF08040FFF76FFC804608EB0706012C17
:101680000FD125480560B1B2A007FFF781FC022108
:101690004807FFF751FC012202214807FFF76FFCC2
:1016A00038E0022C0FD11D480560B1B26007FFF78A
:1016B00071FC04210807FFF73FFC01220421080701
:1016C000FFF75DFC26E0032C10D115480560B1B290
:1016D0004FF08040FFF760FC0821C806FFF72CFCA4
:1016E00001220821C806FFF74AFC13E0042C0FD1A1
:1016F0000C480560B1B22007FFF750FC10218806A6
:10170000FFF71AFC012210218806FFF738FC01E0E0
:10171000BDE8F08100BFFBE71C0000202000002096
:101720002400002028000020FFF762FF0A20FFF7B6
:10173000E1FE40F271210420FEF71CFE32E0FEF7CC
:1017400015FE194890F896000C2810DB1648007812
:1017500025280CD11448007A262808D1124890F880
:101760009610FFF731F900200F4981F896004FF4E9
:1017700080610E48FEF7E5FDA0B1FFF715F90C49B1
:101780000870084600780C2809DB084602780949E9
:101790000020FEF71BFD00200549087002E0002034
:1017A00003490870CBE7000070090020000C0140DD
:1017B00001000020980000206C0680070008FF0947
:1017C000FC09F909F6090708090A0B0C00010203D4
:1017D00004050607080931323334353637383930D5
:1017E0004142434445464748494A4B000C180008CB
:1017F0000000002058000000C81400086418000809
:1018000058000020780F0000D814000800000000E5
:1018100000000000000000000000000000000000C8
:1018200000000000000000000000000000000000B8
:1018300000000000000000000000000000000102A5
:101840000304010203040607080902040608000055
:1018500000A24A040000000000000000010203048E
:041860000607080966
:0400000508000131BD
:00000001FF
