:020000040800F2
:10000000F80F0020450100084D0100084F010008CD
:1000100051010008530100085501000800000000CC
:100020000000000000000000000000005701000870
:1000300059010008000000005B010008510D000894
:100040005F0100085F0100085F0100085F01000810
:100050005F0100085F0100085F0100085F01000800
:100060005F0100085F0100085F0100085F010008F0
:100070005F0100085F0100085F0100085F010008E0
:100080005F0100085F0100085F0100085F010008D0
:100090005F0100085F0100085F0100085F010008C0
:1000A0005F0100085F0100085F0100085F010008B0
:1000B000450E00085F0100085F0100085F010008AD
:1000C0005F0100085F0100085F0100085F01000890
:1000D0005F0100081D1200085F0100085F010008B1
:1000E0005F0100085F0100085F0100085F01000870
:1000F0005F0100085F0100085F0100085F01000860
:100100005F0100085F0100085F0100085F0100084F
:100110005F0100085F0100085F0100085F0100083F
:100120005F0100085F0100085F0100085F0100082F
:10013000DFF80CD000F018F800480047011900085B
:10014000F80F00200648804706480047FEE7FEE714
:10015000FEE7FEE7FEE7FEE7FEE7FEE7FEE7FEE777
:10016000E50D000831010008064C074D06E0E06887
:1001700040F0010394E8070098471034AC42F6D3EE
:10018000FFF7DAFFA4190008C41900082DE9F041AF
:1001900005460E4617464FF480510B4800F0E2F832
:1001A00045F0800000F05EFC002404E0305D00F0CB
:1001B00059FC601CC4B2BC42F8DB4FF480510248C9
:1001C00000F0D2F8BDE8F081000C01402DE9F041CB
:1001D00005460E461746284600F018F804460CB9A6
:1001E000BDE8F081E06908B1E06980473A463146F0
:1001F000204601F098F900BFF2E713B5044601224A
:1002000001A92046FFF7E2FF1CBD0000014609B925
:1002100009487047012901D10020FAE7022901D1DC
:100220000020F6E7032901D10020F2E7042901D1DB
:100230000020EEE70020ECE7700100202DE9F041FE
:10024000024600250026002000230024002791F804
:1002500003C00CF00F0591F803C00CF0100CBCF1BA
:10026000000F03D091F802C04CEA050591F800C0D8
:10027000BCF1000F31D0146800202BE04FF0010CCE
:100280000CFA00F3B1F800C00CEA03069E4220D13C
:1002900083004FF00F0C0CFA03F7BC4305FA03FC84
:1002A0004CEA040491F803C0BCF1280F06D14FF0CA
:1002B000010C0CFA00FCC2F814C00AE091F803C06B
:1002C000BCF1480F05D14FF0010C0CFA00FCC2F84C
:1002D00010C0401C0828D1D31460B1F800C0BCF194
:1002E000FF0F34DD546800202EE000F1080C4FF0C1
:1002F000010808FA0CF3B1F800C00CEA03069E42AC
:1003000021D183004FF00F0C0CFA03F7BC4305FA20
:1003100003FC4CEA040491F803C0BCF1280F05D19A
:1003200000F1080C08FA0CF8C2F8148091F803C028
:10033000BCF1480F07D100F1080C4FF0010808FA92
:100340000CF8C2F81080401C0828CED35460BDE8D9
:10035000F0810246002093680B400BB1012000E0C1
:1003600000207047416170470161704708B5012165
:10037000042000F093F84FF48050ADF800001020F6
:100380008DF8030003208DF8020069461148FFF73D
:1003900055FF4FF40060ADF8000069460D48FFF7C7
:1003A0004DFF4FF40060ADF8000069460948FFF7C3
:1003B00045FF4FF480510748FFF7D6FF4FF4006127
:1003C0000448FFF7D1FF4FF400610248FFF7CCFF6C
:1003D00008BD00000008014070B5002100230F2275
:1003E000C47804B3154C246804F4E064C4F5E064F4
:1003F000210AC1F10403CA40447804FA03F1847865
:100400001440214309010E4C0678A155047804F0EC
:100410001F050124AC4005786D11AD0005F1E02504
:10042000C5F8004109E0047804F01F050124AC4040
:10043000044D0678761145F8264070BD0CED00E0BD
:1004400000E400E080E100E002490143024A11605B
:10045000704700000000FA050CED00E029B1064AE3
:10046000D2690243044BDA6104E0034AD269824351
:10047000014BDA61704700000010024029B1064AC2
:1004800012690243044B1A6104E0034A1269824371
:10049000014B1A61704700000010024029B1064A62
:1004A00092690243044B9A6104E0034A92698243D1
:1004B000014B9A61704700000010024029B1064AC2
:1004C000D2680243044BDA6004E0034AD2688243F4
:1004D000014BDA60704700000010024030B5002187
:1004E0000022002400232D4D6D6805F00C0121B180
:1004F000042905D0082923D105E0294D056022E013
:10050000274D05601FE0254D6D6805F47012234DE1
:100510006D6805F48034022505EB92421CB9214D2B
:10052000554305600BE01D4D6D6805F400351DB1A8
:100530001C4D5543056002E0194D5543056002E02E
:10054000174D056000BF00BF144D6D6805F0F00148
:100550000909154D6B5C0568DD4045600F4D6D6800
:1005600005F4E061090A104D6B5C4568DD4085606B
:100570000A4D6D6805F46051C90A0B4D6B5C456806
:10058000DD40C560054D6D6805F44041890B074DA0
:100590006B5CC568B5FBF3F5056130BD001002402A
:1005A00000127A0000093D00530000206300002083
:1005B00008B501210420FFF771FF01210820FFF792
:1005C0006DFF4FF48070ADF8000003208DF802003D
:1005D00010208DF8030069461548FFF72FFE4FF4F1
:1005E0008050ADF8000003208DF8020010208DF837
:1005F000030069460F48FFF721FE4FF48060ADF815
:10060000000004208DF8030069460A48FFF716FE33
:100610004FF40060ADF8000003208DF802001020B8
:100620008DF8030069460348FFF708FE08BD000087
:1006300000080140000C014010B500F0A9F900F0DD
:10064000ABF810BD70B506464FF480714748FFF710
:1006500089FE642404E00A2001F04EF8601EC4B252
:10066000002CF8D14FF480714048FFF77DFEFA244A
:1006700004E00A2001F040F8601EC4B2002CF8D15A
:1006800000F056F9FA2404E0012001F035F8601E6C
:10069000C4B2002CF8D100F073F8422000F0FEF94B
:1006A000054600BF06E0324931F8140000F014FAA4
:1006B000601CC4B2032CF6DB2E49088800F00CFA4B
:1006C00040F60B3000F008FA40F6234000F004FA40
:1006D00029484078062823D12849097A4FF4E8525E
:1006E00002EB011101F1090000F0F6F92249497805
:1006F0004FF4F05202EB0111C81C00F0EDF931206B
:1007000000F0CCF9054605F0F80545F0050505F5BE
:10071000445000F0E1F943F20C7000F0DDF912E012
:100720001649097A4FF4E85202EB011101F1080071
:1007300000F0D2F9104949784FF4F05202EB011160
:10074000C81C00F0C9F941F6FF7000F0C5F94FF47C
:10075000005000F0C1F942F20C1000F0BDF944F273
:10076000011000F0B9F900F0E9F870BD000801408F
:1007700070190008761900087E190008841900080D
:1007800010B54FF4C47000F0A7F910BD10B541F2D8
:10079000FF2000F0A1F910BD10B50020FFF752FFB7
:1007A00044F6845000F098F942F2FF4000F094F9CA
:1007B00044F2010000F090F941F23F1000F08CF992
:1007C000FFF7E4FF42F2152000F086F90F2000F059
:1007D00065F9044604F5506000F07EF940F20D1012
:1007E00000F07AF910BD2DE9F04104460027002001
:1007F000FFF728FF4FF47A7000F07EFF44F6875031
:1008000000F06AF94FF4105000F066F944F241002C
:1008100000F062F9FFF7BAFF41F2F71000F05CF95F
:1008200004F5085000F058F90E2000F037F906469C
:1008300006F5506000F050F90BE0222000F02EF990
:100840000546A54200D105E0032F02DB0020BDE8EC
:10085000F081F2E700BF2046F9E700002DE9F04102
:100860000546002603E00020A855701CC6B2202EC5
:10087000F9DB102000F012F9074607F5506000F090
:100880002BF9012000F038FF0F484078062801D1ED
:10089000152403E0132000F001F90446012C04D1D3
:1008A000002000F0FBF8287006E00848047022469B
:1008B0002946002000F0B0F8FFF768FF012000F0A3
:1008C0001BFF2046BDE8F0817E1900082C000020A7
:1008D00070B505460C460026224629460020FFF743
:1008E00055FC40F20B1000F0F7F809E0701C80B2E4
:1008F0000646B0F57A7F00DD09E0012000F0DCFE5D
:100900004FF480610948FFF724FD0028EED000BFB6
:10091000122000F0C3F8FFF739FF00F00FF8B6F52A
:100920007A7F01DD002070BD2046FCE7000C01400D
:1009300010B54FF4847000F0CFF810BD10B540F240
:10094000091000F0C9F810BD10B500240348FFF7E6
:1009500085FF044600F004F8204610BDC0000020CA
:1009600010B5FFF719FF10BD70B506460C460025FF
:100970002046FFF738FF054621463046FFF7A8FF1F
:100980000546052000F098FEFFF7EAFF284670BDF7
:1009900000B587B01E4800F0C3F801210820FFF71A
:1009A0007DFD01218803FFF759FD4FF46040ADF84C
:1009B000040018208DF8070001208DF8060001A919
:1009C0001448FFF73BFC0020ADF808004FF482709C
:1009D000ADF80A000020ADF80C00ADF80E00ADF83F
:1009E00010004FF40070ADF812003820ADF814007C
:1009F0000020ADF816000720ADF8180002A9044841
:100A000000F0C8F80121024800F07EF807B000BDF0
:100A100000380040000C01402DE9F04106460F4629
:100A20001546012D01DCBDE8F0814FF480510C48E2
:100A3000FFF798FC06F07F0000F014F8002405E0B2
:100A4000FF2000F00FF83855601CC4B2AC42F7DB51
:100A50004FF480510248FFF787FC00BFE3E7000036
:100A6000000C014010B5044600BF02210A4800F006
:100A700083F80028F9D02146074800F089F800BF24
:100A80000121054800F078F80028F9D0024800F06C
:100A90007CF8C0B210BD00000038004070B50446BC
:100AA0004FF480510848FFF75DFC04F07F00FFF72A
:100AB000D9FF00F00BF805464FF480510248FFF7CC
:100AC00053FC284670BD0000000C014010B5FF200B
:100AD000FFF7C8FF10BD000010B5044644F4004401
:100AE0004FF480510748FFF73DFC2012FFF7BAFF93
:100AF000E0B2FFF7B7FF4FF480510248FFF734FC34
:100B000010BD0000000C014021B1028842F04002FB
:100B1000028004E002884FF6BF731A4002807047DB
:100B200010B504461148844208D101218014FFF712
:100B3000C5FC0021A014FFF7C1FC16E00C4884425C
:100B400008D101210014FFF799FC00212014FFF7C0
:100B500095FC0AE00748844207D10121C013FFF742
:100B60008DFC0021E013FFF789FC10BD003001402F
:100B700000380040003C00400246002013890B4032
:100B80000BB1012000E000207047014688897047C2
:100B90008181704710B50022028802F441520B880F
:100BA0004C8823438C882343CC8823430C892343DC
:100BB0004C8923438C892343CC8923431A430280E5
:100BC000838B4FF2FF74234083830B8A038210BD13
:100BD00010B500F001F810BD0CB500200190009098
:100BE0003348006840F480303149086000BF304825
:100BF000006800F4003000900198401C01900098BB
:100C000018B90198B0F5A06FF1D12948006800F437
:100C1000003010B10120009001E000200090009809
:100C2000012843D12348006840F0100021490860A2
:100C30000846006820F0030008600846006840F09D
:100C4000020008601A484068194948600846406830
:100C500048600846406840F4806048600846406844
:100C600020F47C1048600846406840F4E810486072
:100C70000846006840F08070086000BF0C480068BB
:100C800000F000700028F9D00948406820F0030007
:100C9000074948600846406840F00200486000BFCD
:100CA0000348406800F00C000828F9D10CBD000092
:100CB000001002400020024070B5002016E0002124
:100CC00000EB40021E4B03EB8202516000EB40023E
:100CD00003EB8202916000EB400203EB8202517051
:100CE00000EB400203F82210411CC8B20428E6DBE6
:100CF000144909684FF47A73B1FBF3F2511EB1F154
:100D0000807F00D31BE0511E4FF0E023596159173B
:100D10000F23002904DB1C07250E0B4C655406E04D
:100D20001C07260E094C01F00F052D1F665500BF4C
:100D300000214FF0E02399610721196100BF70BDC8
:100D4000400100206800002000E400E018ED00E011
:100D500010B500F001F810BD10B51C48006840B196
:100D60001A480068401E1949086010B90120184946
:100D70000870002408E004EB4401164A02EB8100ED
:100D800000F041FD601CC4B2042CF4DB1248006882
:100D9000401C11490860084600686FF00041884215
:100DA00002D100200C49086000F02CFD0B480078AF
:100DB000401CC0B2094908700A2803DB00200870F3
:100DC00000F00CFD064800F013F910BD30000020C3
:100DD0003400002040010020380000203C000020AA
:100DE0000000002010B51348006840F001001149D0
:100DF000086008464068104908400E4948600846A7
:100E000000680E4908400B4908600846006820F455
:100E1000802008600846406820F4FE0048604FF4D7
:100E20001F008860FFF7D4FE4FF00060044908609F
:100E300010BD0000001002400000FFF8FFFFF6FEAA
:100E400008ED00E010B50221480700F05BF858B14A
:100E50000221480700F044F800220221480700F070
:100E600062F81B48006880470421080700F04AF830
:100E700058B10421080700F033F8002204210807C4
:100E800000F051F81348006880470821C80600F0B8
:100E900039F858B10821C80600F022F800220821CC
:100EA000C80600F040F80C4800688047102188060A
:100EB00000F028F858B11021880600F011F800223F
:100EC0001021880600F02FF804480068804710BD04
:100ED0004000002044000020480000204C0000207A
:100EE000CA430282704721B1028842F001020280A7
:100EF00004E002884FF6FE731A40028070470146F4
:100F0000888C704730B50246002000230024158AE3
:100F100005EA0103958905EA010413B10CB101202A
:100F200000E0002030BD1AB183890B43838102E0C9
:100F300083898B438381704781867047018770471F
:100F400081877047A0F84010704700000022028897
:100F50001D4B98420ED01D4B98420BD0B0F1804FE4
:100F600008D01B4B984205D01A4B984202D01A4B1E
:100F7000984204D14FF68F731A404B881A43174B8F
:100F8000984207D0164B984204D04FF6FF431A40C0
:100F9000CB881A4302808B8883850B8803850A4B94
:100FA00098420BD0094B984208D00E4B984205D07E
:100FB0000D4B984202D00D4B984201D10B7A03861B
:100FC0000123838270470000002C0140003401405F
:100FD0000004004000080040000C004000100040E9
:100FE000001400400040014000440140004801401E
:100FF0000146002033E000EB400211F8222062BBE2
:1010000000EB400201EB82025288002A25DD00EB52
:10101000400201EB82025288521E00EB400301EBBA
:1010200083035A8000EB400201EB82025288A2B98E
:1010300000EB400211F822204AB900EB400201EB1C
:101040008202928800EB400301EB83035A80012265
:1010500000EB400301EB83035A70421CD0B2024AFA
:1010600012789042C7DB70475200002003480068A6
:1010700080F4805001490860704700000C0801406E
:1010800010B51248007800B910BD114890F89600CC
:101090000C2800DAF8E700200C4908700C480078AA
:1010A000252807D00A48007A262803D009A000F096
:1010B00073FA05E001200B49087000200A49087600
:1010C0000020034981F8960000BFDDE750000020B2
:1010D000980900206572726F7220696E20686561E0
:1010E00064210000240000200000002010B5074803
:1010F0000078012809D10C210548FFF735FC0120B3
:101100000449087600200149087010BD2400002021
:10111000980900200000002008B525208DF8000067
:1011200000208DF8020001208DF803006846FFF7CB
:1011300053F908BD10B500F04FF800F003F8FFF7C1
:10114000EBFF10BD00B585B001210520FFF7A6F922
:1011500001218803FFF7A2F94FF40070ADF81000E9
:1011600018208DF8130003208DF8120004A91848E8
:10117000FFF764F84FF48060ADF8100004208DF89C
:10118000130004A91248FFF759F84FF4E13000901A
:101190000020ADF80400ADF80600ADF80800ADF889
:1011A0000C000C20ADF80A0069460A4800F0A2F8CD
:1011B000012240F22551074800F077F80121054847
:1011C00000F03DF84021034800F030F805B000BDC4
:1011D00000080140003801400B480C4908600C48E9
:1011E00048600C4888604FF480608881C881002086
:1011F00008824882C882088348838882C86108625E
:101200000548486270470000003801407001002026
:1012100098010020980500202914000810B5024804
:1012200000F00EF910BD00007001002001F4007202
:10123000B2F5007F00D100BFCA430280704721B1E0
:10124000828942F40052828104E082894DF6FF7364
:101250001A408281704770B50246002400230025A1
:10126000002040F66A16B14200D100BFC1F342151A
:1012700001F01F03012606FA03F3012D02D196891E
:10128000334006E0022D02D1168A334001E0968AEF
:1012900033400C12012606FA04F41688344013B1C8
:1012A0000CB1012000E0002070BDF0B50346002421
:1012B00000260025002040F66A17B94200D100BF81
:1012C0001846C1F3421401F01F06012707FA06F57C
:1012D000012C01D10C3004E0022C01D1103000E0CF
:1012E00014301AB107682F43076002E00768AF4364
:1012F0000760F0BD2DE9F04786B005460E46002494
:10130000A24600BFA1460027B08900B100BF2F460A
:101310002C8A4CF6FF700440F08804432C82AC8980
:101320004EF6F3100440B0883189084371890843B0
:101330000443AC81AC8A4FF6FF400440B0890443BB
:10134000AC8201A8FFF7CAF81F48874202D1DDF836
:1013500010A001E0DDF80CA0A88900F4004040B125
:101360000AEBCA0000EB0A1031684900B0FBF1F843
:1013700007E00AEBCA0000EB0A1031688900B0FBF5
:10138000F1F86420B8FBF0F004012009642101FBAE
:101390001089A88900F4004040B1322000EBC90058
:1013A000B0FBF1F000F00700044308E0322000EB4E
:1013B00009106421B0FBF1F000F00F0004432C8110
:1013C00006B0BDE8F087000000380140014688887B
:1013D000C0F308007047C1F3080282807047000024
:1013E00070B5044600200D49087040F22F150C4AD4
:1013F0002946012000F016FA0A4890F8960096282F
:101400000ADA084890F8961090F89600401C054AB1
:1014100082F896001046445470BD00005000002031
:10142000351400089809002010B504462046FFF73F
:10143000D7FF10BD012001490870704750000020FF
:1014400070B5044640F225512068FFF704FFE0B173
:101450002068FFF7BBFFC5B2E18AA0684554E08A67
:10146000401C80B2E082E189884201DB0020E082FA
:10147000608BE189884202DA608B401C6083606A7D
:1014800010B12846616A884700BF40F22771206882
:10149000FFF7E1FE08B3A08A60B9002240F227718D
:1014A0002068FFF702FF012240F226612068FFF763
:1014B000FCFE37E0638A6268D15C2068FFF78BFF2F
:1014C000608A401C80B26082A189884201DB0020D2
:1014D0006082A08A401EA08224E040F2266120683B
:1014E000FFF7B9FEF0B1A08A50B9002240F22661A0
:1014F0002068FFF7DAFE206AA0B1206A804711E079
:10150000638A6268D15C2068FFF765FF608A401CCF
:1015100080B26082A189884201DB00206082A08ABB
:10152000401EA08270BDF8B504460E461746002541
:1015300029E00EE0012000F051F8A08A0090002080
:1015400000F04CF8A089BDF80010884200DD01E0F1
:1015500000BFEFE700BF705D228A616888540120F8
:1015600000F03CF8208A401C80B22082A189884289
:1015700001DB00202082A08A401CA082002000F015
:101580002DF8681C85B2BD42D3DB012240F22771E1
:101590002068FFF78AFEF8BD0FB4054B10B503A90C
:1015A000044A029800F01DF810BC5DF814FB00001E
:1015B000ED1800087C00002002E008C8121F08C1D6
:1015C000002AFAD170477047002001E001C1121FC4
:1015D000002AFBD1704780F31088704780F3108891
:1015E00070472DE9F84F99469246884605460027F0
:1015F00006E025280AD051464A4690476D1C7F1CBC
:1016000028780028F5D13846BDE8F88F002315F872
:10161000011F18462E2915D115F8011F04232A2968
:101620000DD06FF02F022978A1F13004092C09D8D0
:1016300000EB800002EB400008446D1CF3E758F813
:10164000040B6D1C2A78002ADDD0632A07D0732A88
:101650000FD0104651464A4690477F1C2AE018F8A2
:10166000042B8DF8002000218DF801106E46012119
:1016700003E058F8046B4FF0FF315A074FF00004B5
:1016800001D409E0641C84420BDA8C42FADB325D3F
:10169000002AF7D105E0641C8C42FCDB305D002899
:1016A000F9D1274404E016F8010B51464A46904709
:1016B000641EF8D26D1CA3E710B5044604B910BD32
:1016C000012C00D102240120FFF785FF08480460A7
:1016D000002008490870FFF77EFF04E00548007805
:1016E000012800D100E0F9E700BF00BFE7E70000F4
:1016F0003000002034000020F0B5034600224FF0F7
:10170000E02675690F4E36680F4FB6FBF7F606FBFD
:1017100003F400BF4FF0E026B16910E04FF0E0267F
:10172000B06988420BD0884202D20E1A324402E0DD
:101730002E1A0E4432440146A24200D300E0EDE7E7
:1017400000BFF0BD6800002040420F007FB50121BE
:101750000846FEF783FE1548006846081448B6FBA5
:10176000F0F085B24FF6FF74ADF80840ADF80450C4
:101770000020ADF80A00ADF8060001A94FF0804046
:10178000FFF7E4FB01218807FFF7ADFB1C208DF874
:10179000000004208DF8010000208DF802000120D7
:1017A0008DF803006846FEF717FE7FBD6800002035
:1017B00040420F0010B54FF4C060FEF745FEFEF743
:1017C000D5FDFFF779FAFFF7C1FFFFF7B3FCFEF78E
:1017D000EFFEFEF731FFFFF7C3F810BD07480068C2
:1017E000401C06490860322807D1002008600448E0
:1017F000006880F4006002490860704728000020FB
:101800000C0801407047416851B14168491E416070
:1018100031B9012141700178012901D1816841600C
:10182000704700002DE9F04104460F461546052F8C
:1018300000D37F1F4FF08040FFF761FB804608EB2D
:101840000706012C0FD125480560B1B2A007FFF7AC
:1018500073FB02214807FFF743FB012202214807DF
:10186000FFF761FB38E0022C0FD11D480560B1B2D3
:101870006007FFF763FB04210807FFF731FB012234
:1018800004210807FFF74FFB26E0032C10D1154871
:101890000560B1B24FF08040FFF752FB0821C80647
:1018A000FFF71EFB01220821C806FFF73CFB13E0EF
:1018B000042C0FD10C480560B1B22007FFF742FBA2
:1018C00010218806FFF70CFB012210218806FFF784
:1018D0002AFB01E0BDE8F08100BFFBE740000020EB
:1018E00044000020480000204C00002070B5044651
:1018F0000D46E1B20020FEF780FC204670BD0000DE
:10190000FFF758FF0A20FFF7D7FE28E0144890F8A9
:1019100096000C2810DB1248007825280CD11048BE
:10192000007A262808D10E4890F89610FFF71CF888
:1019300000200B4981F896004FF480610948FEF7BA
:1019400008FD60B1FFF700F8074908700846027803
:1019500006490020FEF73AFC002003490870D5E74D
:1019600098090020000C014027000020C000002042
:101970006C0680070008FF09FC09F909F609070849
:10198000090A0B0C0001020304050607080931329D
:101990003334353637383930414243444546474879
:1019A000494A4B00C41900080000002080000000D4
:1019B000B8150008441A000880000020780F0000C5
:1019C000C815000800000100E80300006D100008C1
:1019D0000000010005000000811000080100010066
:1019E00005000000ED1000080000000000000000ED
:1019F00000000000000000000000000000000000E7
:101A000000000000000000000000000000000000D6
:101A100000000000000000000000000102030401BB
:101A200002030406070809020406080000A24A048B
:101A3000000000000000000001020304060708097E
:041A400000000000A2
:0400000508000131BD
:00000001FF
